:020000040800F2
:10000000080400209D010008830200087F02000808
:1000100081020008E50100089D03000800000000BF
:10002000000000000000000000000000A102000825
:10003000E70100080000000085020008A302000894
:10004000B7010008B7010008B7010008B7010008B0
:10005000B7010008B7010008B7010008B7010008A0
:10006000B7010008B7010008B7010008B701000890
:10007000B7010008B7010008B7010008B701000880
:10008000B7010008B7010008B7010008B701000870
:10009000B7010008B7010008B7010008B701000860
:1000A000B7010008B7010008B7010008B701000850
:1000B000B7010008B7010008B7010008B701000840
:1000C000B7010008B7010008B7010008B701000830
:1000D000B7010008B7010008B7010008B701000820
:1000E000B7010008B7010008B7010008B701000810
:1000F000B7010008B7010008B7010008B701000800
:10010000000000000000000000000000B70100082F
:10011000B7010008B7010008B7010008B7010008DF
:10012000B7010008B7010008B7010008B7010008CF
:10013000B7010008B701000800000000000000003F
:10014000B7010008B7010008B7010008000000006F
:10015000000000000000000000000000000000009F
:100160000000000000000000B7010008B70100080F
:10017000B7010008000000000000000000000000BF
:1001800000000000B7010008DFF80CD000F018F8FC
:1001900000480047BD0300080804002006488047C7
:1001A00006480047FEE7FEE7FEE7FEE7FEE7FEE75C
:1001B000FEE7FEE7FEE7FEE7A5020008890100086A
:1001C000064C074D06E0E06840F0010394E80700A4
:1001D00098471034AC42F6D3FFF7DAFFF00300087B
:1001E00010040008FEE77047F0B4002201254FF02C
:1001F000030C00BF0C6805FA02F31C409C4238D186
:100200000C79012C18BF022C19D186684FEA4204E0
:100210000CFA04F726EA070686604E7906FA04F41B
:10022000866844EA06048460848824EA03038380A1
:1002300084888B7903FA02F344EA03038380066817
:100240004FEA42030CFA03F426EA040606600E792C
:10025000076806FA03F646EA07060660C66826EA55
:100260000404C460CC7904FA03F3C46843EA0403C9
:10027000C36002F10102102ABCD3F0BC7047FEE754
:10028000FEE7704770470000044A0029516914BF17
:10029000084321EA0000506170470000001002404E
:1002A00070477047374882B0016841F470010160BF
:1002B0003548016841F0010101604168334A11404D
:1002C0004160016821F4102121F080710160016812
:1002D00021F480210160416821F4FE014160C16A7E
:1002E00021F00F01C162016B294A11400163002214
:1002F000826001920092016841F4A02101600168CE
:1003000001F4003100910199491C0191009919B93A
:100310000199B1F5A06FF2D1016811F4003F08BF57
:10032000009229D001211B4A0091122111604168DD
:10033000416041684160416841F4806141604168C9
:1003400021F47C114160416841F4E8114160016889
:1003500041F080710160016811F0007FFBD04168BD
:1003600021F003014160416841F0020141604168B0
:1003700001F00C010829FAD107494FF0006008602C
:1003800002B0704788ED00E0001002400CC07FF81A
:10039000CCFC00FF0020024008ED00E0FEE702E098
:1003A00008C8121F08C1002AFAD170477047002000
:1003B00001E001C1121F002AFBD17047012148054D
:1003C000FFF762FF08484FF44044012104600171C7
:1003D0000021817103224271C171044D01462846FA
:1003E000FFF702FFAC61FDE70000002000100048AD
:1003F0001004000800000020080000009E03000810
:10040000180400080800002000040000AE030008E3
:080410000000000000000000E4
:040000050800018965
:00000001FF
